{
  "transactions": [
    {
      "hash": "0x413100728f23ef013834ab30311ea4241e6c8dd0bc934bbe42e04f6dd5f0b112",
      "transactionType": "CALL",
      "contractName": null,
      "contractAddress": "0x0f4fa7dc4d2a69de0be5b5e3a6923ddce1a7dc2a",
      "function": "approve(address,uint256)",
      "arguments": [
        "0xa6dFcd431EEc8dAd05B104D6Aaa381900dF1c080",
        "115792089237316195423570985008687907853269984665640564039457584007913129639935"
      ],
      "transaction": {
        "from": "0x09af81759315a149f9f87433f5c01f31bff2cf36",
        "to": "0x0f4fa7dc4d2a69de0be5b5e3a6923ddce1a7dc2a",
        "gas": "0x10e04",
        "value": "0x0",
        "input": "0x095ea7b3000000000000000000000000a6dfcd431eec8dad05b104d6aaa381900df1c080ffffffffffffffffffffffffffffffffffffffffffffffffffffffffffffffff",
        "nonce": "0x7",
        "chainId": "0xaa36a7"
      },
      "additionalContracts": [],
      "isFixedGasLimit": false
    },
    {
      "hash": "0xdb53bf15ba04b7bfe6b7809cbf1d1e8016213e622808d154b87d3e1a6d5260ac",
      "transactionType": "CALL",
      "contractName": null,
      "contractAddress": "0x68c47cead9a67e27f84bdb058fcab747d2f2e0c3",
      "function": "approve(address,uint256)",
      "arguments": [
        "0xa6dFcd431EEc8dAd05B104D6Aaa381900dF1c080",
        "115792089237316195423570985008687907853269984665640564039457584007913129639935"
      ],
      "transaction": {
        "from": "0x09af81759315a149f9f87433f5c01f31bff2cf36",
        "to": "0x68c47cead9a67e27f84bdb058fcab747d2f2e0c3",
        "gas": "0x10e04",
        "value": "0x0",
        "input": "0x095ea7b3000000000000000000000000a6dfcd431eec8dad05b104d6aaa381900df1c080ffffffffffffffffffffffffffffffffffffffffffffffffffffffffffffffff",
        "nonce": "0x8",
        "chainId": "0xaa36a7"
      },
      "additionalContracts": [],
      "isFixedGasLimit": false
    },
    {
      "hash": "0x8135606b6ac3599427b3e5c084d0b566d5c6f01bae8c429e60ad5e585d34ec04",
      "transactionType": "CALL",
      "contractName": null,
      "contractAddress": "0x0f4fa7dc4d2a69de0be5b5e3a6923ddce1a7dc2a",
      "function": "approve(address,uint256)",
      "arguments": [
        "0x000000000022D473030F116dDEE9F6B43aC78BA3",
        "115792089237316195423570985008687907853269984665640564039457584007913129639935"
      ],
      "transaction": {
        "from": "0x09af81759315a149f9f87433f5c01f31bff2cf36",
        "to": "0x0f4fa7dc4d2a69de0be5b5e3a6923ddce1a7dc2a",
        "gas": "0xfeb1",
        "value": "0x0",
        "input": "0x095ea7b3000000000000000000000000000000000022d473030f116ddee9f6b43ac78ba3ffffffffffffffffffffffffffffffffffffffffffffffffffffffffffffffff",
        "nonce": "0x9",
        "chainId": "0xaa36a7"
      },
      "additionalContracts": [],
      "isFixedGasLimit": false
    },
    {
      "hash": "0xdc10897f0f28b2aa2f4ae081a7bc976f3f5ab3a446b0882be051f0cd1c1750b5",
      "transactionType": "CALL",
      "contractName": null,
      "contractAddress": "0x000000000022d473030f116ddee9f6b43ac78ba3",
      "function": "approve(address,address,uint160,uint48)",
      "arguments": [
        "0x0F4Fa7Dc4d2A69dE0Be5b5E3A6923ddce1a7Dc2a",
        "0x429ba70129df741B2Ca2a85BC3A2a3328e5c09b4",
        "1461501637330902918203684832716283019655932542975",
        "281474976710655"
      ],
      "transaction": {
        "from": "0x09af81759315a149f9f87433f5c01f31bff2cf36",
        "to": "0x000000000022d473030f116ddee9f6b43ac78ba3",
        "gas": "0x1112d",
        "value": "0x0",
        "input": "0x87517c450000000000000000000000000f4fa7dc4d2a69de0be5b5e3a6923ddce1a7dc2a000000000000000000000000429ba70129df741b2ca2a85bc3a2a3328e5c09b4000000000000000000000000ffffffffffffffffffffffffffffffffffffffff0000000000000000000000000000000000000000000000000000ffffffffffff",
        "nonce": "0xa",
        "chainId": "0xaa36a7"
      },
      "additionalContracts": [],
      "isFixedGasLimit": false
    },
    {
      "hash": "0xda413df7fb70513623f9cedaa0d04da6af4fa8415a57fea6db3ac111d6294991",
      "transactionType": "CALL",
      "contractName": null,
      "contractAddress": "0x68c47cead9a67e27f84bdb058fcab747d2f2e0c3",
      "function": "approve(address,uint256)",
      "arguments": [
        "0x000000000022D473030F116dDEE9F6B43aC78BA3",
        "115792089237316195423570985008687907853269984665640564039457584007913129639935"
      ],
      "transaction": {
        "from": "0x09af81759315a149f9f87433f5c01f31bff2cf36",
        "to": "0x68c47cead9a67e27f84bdb058fcab747d2f2e0c3",
        "gas": "0xfeb1",
        "value": "0x0",
        "input": "0x095ea7b3000000000000000000000000000000000022d473030f116ddee9f6b43ac78ba3ffffffffffffffffffffffffffffffffffffffffffffffffffffffffffffffff",
        "nonce": "0xb",
        "chainId": "0xaa36a7"
      },
      "additionalContracts": [],
      "isFixedGasLimit": false
    },
    {
      "hash": "0x060af0d04ee40c642335fe9b534593842340709dcf84d9ba1bcf12046af6a1f7",
      "transactionType": "CALL",
      "contractName": null,
      "contractAddress": "0x000000000022d473030f116ddee9f6b43ac78ba3",
      "function": "approve(address,address,uint160,uint48)",
      "arguments": [
        "0x68C47CEAD9A67E27f84BDb058FCaB747d2F2e0C3",
        "0x429ba70129df741B2Ca2a85BC3A2a3328e5c09b4",
        "1461501637330902918203684832716283019655932542975",
        "281474976710655"
      ],
      "transaction": {
        "from": "0x09af81759315a149f9f87433f5c01f31bff2cf36",
        "to": "0x000000000022d473030f116ddee9f6b43ac78ba3",
        "gas": "0x1112d",
        "value": "0x0",
        "input": "0x87517c4500000000000000000000000068c47cead9a67e27f84bdb058fcab747d2f2e0c3000000000000000000000000429ba70129df741b2ca2a85bc3a2a3328e5c09b4000000000000000000000000ffffffffffffffffffffffffffffffffffffffff0000000000000000000000000000000000000000000000000000ffffffffffff",
        "nonce": "0xc",
        "chainId": "0xaa36a7"
      },
      "additionalContracts": [],
      "isFixedGasLimit": false
    },
    {
      "hash": "0xdd212736a1182bb606a0100a3de416a7a138fd20144c8e01c800bc25a9333d8a",
      "transactionType": "CALL",
      "contractName": null,
      "contractAddress": "0x429ba70129df741b2ca2a85bc3a2a3328e5c09b4",
      "function": "multicall(bytes[])",
      "arguments": [
        "[0xf70204050000000000000000000000000f4fa7dc4d2a69de0be5b5e3a6923ddce1a7dc2a00000000000000000000000068c47cead9a67e27f84bdb058fcab747d2f2e0c30000000000000000000000000000000000000000000000000000000000000bb8000000000000000000000000000000000000000000000000000000000000003c000000000000000000000000a6dfcd431eec8dad05b104d6aaa381900df1c080000000000000000000000000000000000000000100000000000000000000000000000000000000000000000000000000000000000000000000000000000000e00000000000000000000000000000000000000000000000000000000000000000, 0xdd46508f000000000000000000000000000000000000000000000000000000000000004000000000000000000000000000000000000000000000000000000000693b87a00000000000000000000000000000000000000000000000000000000000000300000000000000000000000000000000000000000000000000000000000000004000000000000000000000000000000000000000000000000000000000000000800000000000000000000000000000000000000000000000000000000000000002020d00000000000000000000000000000000000000000000000000000000000000000000000000000000000000000000000000000000000000000000000000020000000000000000000000000000000000000000000000000000000000000040000000000000000000000000000000000000000000000000000000000000020000000000000000000000000000000000000000000000000000000000000001a00000000000000000000000000f4fa7dc4d2a69de0be5b5e3a6923ddce1a7dc2a00000000000000000000000068c47cead9a67e27f84bdb058fcab747d2f2e0c30000000000000000000000000000000000000000000000000000000000000bb8000000000000000000000000000000000000000000000000000000000000003c000000000000000000000000a6dfcd431eec8dad05b104d6aaa381900df1c080fffffffffffffffffffffffffffffffffffffffffffffffffffffffffffffda8000000000000000000000000000000000000000000000000000000000000025800000000000000000000000000000000000000000002cc89743b0bf39cccfd5000000000000000000000000000000000000000000000152d02c7e14af680000100000000000000000000000000000000000000000000152d02c7e14af680000100000000000000000000000009af81759315a149f9f87433f5c01f31bff2cf360000000000000000000000000000000000000000000000000000000000000180000000000000000000000000000000000000000000000000000000000000000000000000000000000000000000000000000000000000000000000000000000400000000000000000000000000f4fa7dc4d2a69de0be5b5e3a6923ddce1a7dc2a00000000000000000000000068c47cead9a67e27f84bdb058fcab747d2f2e0c3]"
      ],
      "transaction": {
        "from": "0x09af81759315a149f9f87433f5c01f31bff2cf36",
        "to": "0x429ba70129df741b2ca2a85bc3a2a3328e5c09b4",
        "gas": "0xa1df4",
        "value": "0x0",
        "input": "0xac9650d800000000000000000000000000000000000000000000000000000000000000200000000000000000000000000000000000000000000000000000000000000002000000000000000000000000000000000000000000000000000000000000004000000000000000000000000000000000000000000000000000000000000001800000000000000000000000000000000000000000000000000000000000000104f70204050000000000000000000000000f4fa7dc4d2a69de0be5b5e3a6923ddce1a7dc2a00000000000000000000000068c47cead9a67e27f84bdb058fcab747d2f2e0c30000000000000000000000000000000000000000000000000000000000000bb8000000000000000000000000000000000000000000000000000000000000003c000000000000000000000000a6dfcd431eec8dad05b104d6aaa381900df1c080000000000000000000000000000000000000000100000000000000000000000000000000000000000000000000000000000000000000000000000000000000e00000000000000000000000000000000000000000000000000000000000000000000000000000000000000000000000000000000000000000000000000000000000000000000000000000000000000000000000000000000000000364dd46508f000000000000000000000000000000000000000000000000000000000000004000000000000000000000000000000000000000000000000000000000693b87a00000000000000000000000000000000000000000000000000000000000000300000000000000000000000000000000000000000000000000000000000000004000000000000000000000000000000000000000000000000000000000000000800000000000000000000000000000000000000000000000000000000000000002020d00000000000000000000000000000000000000000000000000000000000000000000000000000000000000000000000000000000000000000000000000020000000000000000000000000000000000000000000000000000000000000040000000000000000000000000000000000000000000000000000000000000020000000000000000000000000000000000000000000000000000000000000001a00000000000000000000000000f4fa7dc4d2a69de0be5b5e3a6923ddce1a7dc2a00000000000000000000000068c47cead9a67e27f84bdb058fcab747d2f2e0c30000000000000000000000000000000000000000000000000000000000000bb8000000000000000000000000000000000000000000000000000000000000003c000000000000000000000000a6dfcd431eec8dad05b104d6aaa381900df1c080fffffffffffffffffffffffffffffffffffffffffffffffffffffffffffffda8000000000000000000000000000000000000000000000000000000000000025800000000000000000000000000000000000000000002cc89743b0bf39cccfd5000000000000000000000000000000000000000000000152d02c7e14af680000100000000000000000000000000000000000000000000152d02c7e14af680000100000000000000000000000009af81759315a149f9f87433f5c01f31bff2cf360000000000000000000000000000000000000000000000000000000000000180000000000000000000000000000000000000000000000000000000000000000000000000000000000000000000000000000000000000000000000000000000400000000000000000000000000f4fa7dc4d2a69de0be5b5e3a6923ddce1a7dc2a00000000000000000000000068c47cead9a67e27f84bdb058fcab747d2f2e0c300000000000000000000000000000000000000000000000000000000",
        "nonce": "0xd",
        "chainId": "0xaa36a7"
      },
      "additionalContracts": [],
      "isFixedGasLimit": false
    }
  ],
  "receipts": [
    {
      "status": "0x1",
      "cumulativeGasUsed": "0xb0f99d",
      "logs": [
        {
          "address": "0x0f4fa7dc4d2a69de0be5b5e3a6923ddce1a7dc2a",
          "topics": [
            "0x8c5be1e5ebec7d5bd14f71427d1e84f3dd0314c0f7b2291e5b200ac8c7c3b925",
            "0x00000000000000000000000009af81759315a149f9f87433f5c01f31bff2cf36",
            "0x000000000000000000000000a6dfcd431eec8dad05b104d6aaa381900df1c080"
          ],
          "data": "0xffffffffffffffffffffffffffffffffffffffffffffffffffffffffffffffff",
          "blockHash": "0x04d41398d6a35744b032ed4b8408a82d9e0ad0ebafccd43aa809afd1ab1e68f8",
          "blockNumber": "0x95dd63",
          "blockTimestamp": "0x693b877c",
          "transactionHash": "0x413100728f23ef013834ab30311ea4241e6c8dd0bc934bbe42e04f6dd5f0b112",
          "transactionIndex": "0x40",
          "logIndex": "0x9c",
          "removed": false
        }
      ],
      "logsBloom": "0x00000000000000000000000000000100000000000000000000000000000000000100000000000000000000000000000000000000000000000000000000200000000000000000000000000000000002000000000000000000000000000000000000080080000000000000000000000000000000000000000000000000000000080000000000000000000000000000000000000000002000000000000000000000020000000000000000000000000000000000000000000020000000000000000000000000000000000000000000000000000000000000000000000000000000000010000000000000000000000000000000000000000000000000000200000000",
      "type": "0x2",
      "transactionHash": "0x413100728f23ef013834ab30311ea4241e6c8dd0bc934bbe42e04f6dd5f0b112",
      "transactionIndex": "0x40",
      "blockHash": "0x04d41398d6a35744b032ed4b8408a82d9e0ad0ebafccd43aa809afd1ab1e68f8",
      "blockNumber": "0x95dd63",
      "gasUsed": "0xb8a1",
      "effectiveGasPrice": "0xf424e",
      "from": "0x09af81759315a149f9f87433f5c01f31bff2cf36",
      "to": "0x0f4fa7dc4d2a69de0be5b5e3a6923ddce1a7dc2a",
      "contractAddress": null
    },
    {
      "status": "0x1",
      "cumulativeGasUsed": "0xb1b23e",
      "logs": [
        {
          "address": "0x68c47cead9a67e27f84bdb058fcab747d2f2e0c3",
          "topics": [
            "0x8c5be1e5ebec7d5bd14f71427d1e84f3dd0314c0f7b2291e5b200ac8c7c3b925",
            "0x00000000000000000000000009af81759315a149f9f87433f5c01f31bff2cf36",
            "0x000000000000000000000000a6dfcd431eec8dad05b104d6aaa381900df1c080"
          ],
          "data": "0xffffffffffffffffffffffffffffffffffffffffffffffffffffffffffffffff",
          "blockHash": "0x04d41398d6a35744b032ed4b8408a82d9e0ad0ebafccd43aa809afd1ab1e68f8",
          "blockNumber": "0x95dd63",
          "blockTimestamp": "0x693b877c",
          "transactionHash": "0xda413df7fb70513623f9cedaa0d04da6af4fa8415a57fea6db3ac111d6294991",
          "transactionIndex": "0x41",
          "logIndex": "0x9d",
          "removed": false
        }
      ],
      "logsBloom": "0x00000000000000000000000000000300100000000000000000000000000000000000000000000000000000000000000000000000000000000000000000200008000000000000000000000000000002000000000000000000000000000000000000080080000000000000000000000000000000000000000000000000000000000000000000000000000000000000000000000000002000000000000000000000020000000000000000000000000000000000000000000020000000000000000000000000000000000000000000000000000000000000000000000000000000000010000000000000000000000000000000000000000000000000000000000000",
      "type": "0x2",
      "transactionHash": "0xda413df7fb70513623f9cedaa0d04da6af4fa8415a57fea6db3ac111d6294991",
      "transactionIndex": "0x41",
      "blockHash": "0x04d41398d6a35744b032ed4b8408a82d9e0ad0ebafccd43aa809afd1ab1e68f8",
      "blockNumber": "0x95dd63",
      "gasUsed": "0xb8a1",
      "effectiveGasPrice": "0xf424e",
      "from": "0x09af81759315a149f9f87433f5c01f31bff2cf36",
      "to": "0x68c47cead9a67e27f84bdb058fcab747d2f2e0c3",
      "contractAddress": null
    },
    {
      "status": "0x1",
      "cumulativeGasUsed": "0xb26aa3",
      "logs": [
        {
          "address": "0x0f4fa7dc4d2a69de0be5b5e3a6923ddce1a7dc2a",
          "topics": [
            "0x8c5be1e5ebec7d5bd14f71427d1e84f3dd0314c0f7b2291e5b200ac8c7c3b925",
            "0x00000000000000000000000009af81759315a149f9f87433f5c01f31bff2cf36",
            "0x000000000000000000000000000000000022d473030f116ddee9f6b43ac78ba3"
          ],
          "data": "0xffffffffffffffffffffffffffffffffffffffffffffffffffffffffffffffff",
          "blockHash": "0x04d41398d6a35744b032ed4b8408a82d9e0ad0ebafccd43aa809afd1ab1e68f8",
          "blockNumber": "0x95dd63",
          "blockTimestamp": "0x693b877c",
          "transactionHash": "0xdb53bf15ba04b7bfe6b7809cbf1d1e8016213e622808d154b87d3e1a6d5260ac",
          "transactionIndex": "0x42",
          "logIndex": "0x9e",
          "removed": false
        }
      ],
      "logsBloom": "0x00000000000000000000000000000000000000000000000000000000000000000100000000000000000000000000000000000000800000000000000000200000000000000000000000004000000002000000000000000800000000000000000000000080000000000000000000000000000000000000000000000000000000080000000000000000000000000000000000000000000000000000000000000000020000000000000000000000000000000000000000000020000000000000000000000000000000000000000000000000000000000000000000000000000000000010000000000000000000000000000000000000000000000000000200000000",
      "type": "0x2",
      "transactionHash": "0xdb53bf15ba04b7bfe6b7809cbf1d1e8016213e622808d154b87d3e1a6d5260ac",
      "transactionIndex": "0x42",
      "blockHash": "0x04d41398d6a35744b032ed4b8408a82d9e0ad0ebafccd43aa809afd1ab1e68f8",
      "blockNumber": "0x95dd63",
      "gasUsed": "0xb865",
      "effectiveGasPrice": "0xf424e",
      "from": "0x09af81759315a149f9f87433f5c01f31bff2cf36",
      "to": "0x0f4fa7dc4d2a69de0be5b5e3a6923ddce1a7dc2a",
      "contractAddress": null
    },
    {
      "status": "0x1",
      "cumulativeGasUsed": "0xb3256d",
      "logs": [
        {
          "address": "0x000000000022d473030f116ddee9f6b43ac78ba3",
          "topics": [
            "0xda9fa7c1b00402c17d0161b249b1ab8bbec047c5a52207b9c112deffd817036b",
            "0x00000000000000000000000009af81759315a149f9f87433f5c01f31bff2cf36",
            "0x0000000000000000000000000f4fa7dc4d2a69de0be5b5e3a6923ddce1a7dc2a",
            "0x000000000000000000000000429ba70129df741b2ca2a85bc3a2a3328e5c09b4"
          ],
          "data": "0x000000000000000000000000ffffffffffffffffffffffffffffffffffffffff0000000000000000000000000000000000000000000000000000ffffffffffff",
          "blockHash": "0x04d41398d6a35744b032ed4b8408a82d9e0ad0ebafccd43aa809afd1ab1e68f8",
          "blockNumber": "0x95dd63",
          "blockTimestamp": "0x693b877c",
          "transactionHash": "0xdc10897f0f28b2aa2f4ae081a7bc976f3f5ab3a446b0882be051f0cd1c1750b5",
          "transactionIndex": "0x43",
          "logIndex": "0x9f",
          "removed": false
        }
      ],
      "logsBloom": "0x00010000000000000000000000000000000000000000000000000000000000000000000000000040080000000000000000000000000000000000000000080000000000000000000000000000000002000000000000000000000000040000000000000080000000000000000000000000000000000000000000000800000000000020000000000000000000000000200000000000000000000000000000000000000000000000000000000000000000000000000000000420000000080000000000000000000000000000000000000000000000000000000040000000000000000000000000000000000000000000000000000000000000000000000000000400",
      "type": "0x2",
      "transactionHash": "0xdc10897f0f28b2aa2f4ae081a7bc976f3f5ab3a446b0882be051f0cd1c1750b5",
      "transactionIndex": "0x43",
      "blockHash": "0x04d41398d6a35744b032ed4b8408a82d9e0ad0ebafccd43aa809afd1ab1e68f8",
      "blockNumber": "0x95dd63",
      "gasUsed": "0xbaca",
      "effectiveGasPrice": "0xf424e",
      "from": "0x09af81759315a149f9f87433f5c01f31bff2cf36",
      "to": "0x000000000022d473030f116ddee9f6b43ac78ba3",
      "contractAddress": null
    },
    {
      "status": "0x1",
      "cumulativeGasUsed": "0xb3ddd2",
      "logs": [
        {
          "address": "0x68c47cead9a67e27f84bdb058fcab747d2f2e0c3",
          "topics": [
            "0x8c5be1e5ebec7d5bd14f71427d1e84f3dd0314c0f7b2291e5b200ac8c7c3b925",
            "0x00000000000000000000000009af81759315a149f9f87433f5c01f31bff2cf36",
            "0x000000000000000000000000000000000022d473030f116ddee9f6b43ac78ba3"
          ],
          "data": "0xffffffffffffffffffffffffffffffffffffffffffffffffffffffffffffffff",
          "blockHash": "0x04d41398d6a35744b032ed4b8408a82d9e0ad0ebafccd43aa809afd1ab1e68f8",
          "blockNumber": "0x95dd63",
          "blockTimestamp": "0x693b877c",
          "transactionHash": "0x8135606b6ac3599427b3e5c084d0b566d5c6f01bae8c429e60ad5e585d34ec04",
          "transactionIndex": "0x44",
          "logIndex": "0xa0",
          "removed": false
        }
      ],
      "logsBloom": "0x00000000000000000000000000000200100000000000000000000000000000000000000000000000000000000000000000000000800000000000000000200008000000000000000000004000000002000000000000000800000000000000000000000080000000000000000000000000000000000000000000000000000000000000000000000000000000000000000000000000000000000000000000000000020000000000000000000000000000000000000000000020000000000000000000000000000000000000000000000000000000000000000000000000000000000010000000000000000000000000000000000000000000000000000000000000",
      "type": "0x2",
      "transactionHash": "0x8135606b6ac3599427b3e5c084d0b566d5c6f01bae8c429e60ad5e585d34ec04",
      "transactionIndex": "0x44",
      "blockHash": "0x04d41398d6a35744b032ed4b8408a82d9e0ad0ebafccd43aa809afd1ab1e68f8",
      "blockNumber": "0x95dd63",
      "gasUsed": "0xb865",
      "effectiveGasPrice": "0xf424e",
      "from": "0x09af81759315a149f9f87433f5c01f31bff2cf36",
      "to": "0x68c47cead9a67e27f84bdb058fcab747d2f2e0c3",
      "contractAddress": null
    },
    {
      "status": "0x1",
      "cumulativeGasUsed": "0xb4989c",
      "logs": [
        {
          "address": "0x000000000022d473030f116ddee9f6b43ac78ba3",
          "topics": [
            "0xda9fa7c1b00402c17d0161b249b1ab8bbec047c5a52207b9c112deffd817036b",
            "0x00000000000000000000000009af81759315a149f9f87433f5c01f31bff2cf36",
            "0x00000000000000000000000068c47cead9a67e27f84bdb058fcab747d2f2e0c3",
            "0x000000000000000000000000429ba70129df741b2ca2a85bc3a2a3328e5c09b4"
          ],
          "data": "0x000000000000000000000000ffffffffffffffffffffffffffffffffffffffff0000000000000000000000000000000000000000000000000000ffffffffffff",
          "blockHash": "0x04d41398d6a35744b032ed4b8408a82d9e0ad0ebafccd43aa809afd1ab1e68f8",
          "blockNumber": "0x95dd63",
          "blockTimestamp": "0x693b877c",
          "transactionHash": "0x060af0d04ee40c642335fe9b534593842340709dcf84d9ba1bcf12046af6a1f7",
          "transactionIndex": "0x45",
          "logIndex": "0xa1",
          "removed": false
        }
      ],
      "logsBloom": "0x00010000000000000000000000200000000000000000000000000000000000000000000000000040080000000000000000000000000000000000000000080000000000000000000000000004000002000000000000000000000000000000000000000080000000000000000000000000000000000000000000000800000000000020000000000000000000000000000000000000000000000000000000040000000000000000000000000000000000000000000000000020000000080000000000000000000000000000000000000000000000000000000040000000000000000000000000000000000000000000000000000000000000000000000000000400",
      "type": "0x2",
      "transactionHash": "0x060af0d04ee40c642335fe9b534593842340709dcf84d9ba1bcf12046af6a1f7",
      "transactionIndex": "0x45",
      "blockHash": "0x04d41398d6a35744b032ed4b8408a82d9e0ad0ebafccd43aa809afd1ab1e68f8",
      "blockNumber": "0x95dd63",
      "gasUsed": "0xbaca",
      "effectiveGasPrice": "0xf424e",
      "from": "0x09af81759315a149f9f87433f5c01f31bff2cf36",
      "to": "0x000000000022d473030f116ddee9f6b43ac78ba3",
      "contractAddress": null
    },
    {
      "status": "0x1",
      "cumulativeGasUsed": "0xbbebb1",
      "logs": [
        {
          "address": "0xe03a1074c86cfedd5c142c4f04f1a1536e203543",
          "topics": [
            "0xdd466e674ea557f56295e2d0218a125ea4b4f0f6f3307b95f85e6110838d6438",
            "0x8971f2d5ce35a4ced5f61adc2484a8e82660242bc0e84ee1ca13606e7d80fb8a",
            "0x0000000000000000000000000f4fa7dc4d2a69de0be5b5e3a6923ddce1a7dc2a",
            "0x00000000000000000000000068c47cead9a67e27f84bdb058fcab747d2f2e0c3"
          ],
          "data": "0x0000000000000000000000000000000000000000000000000000000000000bb8000000000000000000000000000000000000000000000000000000000000003c000000000000000000000000a6dfcd431eec8dad05b104d6aaa381900df1c08000000000000000000000000000000000000000010000000000000000000000000000000000000000000000000000000000000000000000000000000000000000",
          "blockHash": "0x04d41398d6a35744b032ed4b8408a82d9e0ad0ebafccd43aa809afd1ab1e68f8",
          "blockNumber": "0x95dd63",
          "blockTimestamp": "0x693b877c",
          "transactionHash": "0xdd212736a1182bb606a0100a3de416a7a138fd20144c8e01c800bc25a9333d8a",
          "transactionIndex": "0x46",
          "logIndex": "0xa2",
          "removed": false
        },
        {
          "address": "0x429ba70129df741b2ca2a85bc3a2a3328e5c09b4",
          "topics": [
            "0xddf252ad1be2c89b69c2b068fc378daa952ba7f163c4a11628f55a4df523b3ef",
            "0x0000000000000000000000000000000000000000000000000000000000000000",
            "0x00000000000000000000000009af81759315a149f9f87433f5c01f31bff2cf36",
            "0x00000000000000000000000000000000000000000000000000000000000053f9"
          ],
          "data": "0x",
          "blockHash": "0x04d41398d6a35744b032ed4b8408a82d9e0ad0ebafccd43aa809afd1ab1e68f8",
          "blockNumber": "0x95dd63",
          "blockTimestamp": "0x693b877c",
          "transactionHash": "0xdd212736a1182bb606a0100a3de416a7a138fd20144c8e01c800bc25a9333d8a",
          "transactionIndex": "0x46",
          "logIndex": "0xa3",
          "removed": false
        },
        {
          "address": "0xe03a1074c86cfedd5c142c4f04f1a1536e203543",
          "topics": [
            "0xf208f4912782fd25c7f114ca3723a2d5dd6f3bcc3ac8db5af63baa85f711d5ec",
            "0x8971f2d5ce35a4ced5f61adc2484a8e82660242bc0e84ee1ca13606e7d80fb8a",
            "0x000000000000000000000000429ba70129df741b2ca2a85bc3a2a3328e5c09b4"
          ],
          "data": "0xfffffffffffffffffffffffffffffffffffffffffffffffffffffffffffffda8000000000000000000000000000000000000000000000000000000000000025800000000000000000000000000000000000000000002cc89743b0bf39cccfd5000000000000000000000000000000000000000000000000000000000000053f9",
          "blockHash": "0x04d41398d6a35744b032ed4b8408a82d9e0ad0ebafccd43aa809afd1ab1e68f8",
          "blockNumber": "0x95dd63",
          "blockTimestamp": "0x693b877c",
          "transactionHash": "0xdd212736a1182bb606a0100a3de416a7a138fd20144c8e01c800bc25a9333d8a",
          "transactionIndex": "0x46",
          "logIndex": "0xa4",
          "removed": false
        },
        {
          "address": "0x0f4fa7dc4d2a69de0be5b5e3a6923ddce1a7dc2a",
          "topics": [
            "0xddf252ad1be2c89b69c2b068fc378daa952ba7f163c4a11628f55a4df523b3ef",
            "0x00000000000000000000000009af81759315a149f9f87433f5c01f31bff2cf36",
            "0x000000000000000000000000e03a1074c86cfedd5c142c4f04f1a1536e203543"
          ],
          "data": "0x00000000000000000000000000000000000000000000152d02c7e14af6800000",
          "blockHash": "0x04d41398d6a35744b032ed4b8408a82d9e0ad0ebafccd43aa809afd1ab1e68f8",
          "blockNumber": "0x95dd63",
          "blockTimestamp": "0x693b877c",
          "transactionHash": "0xdd212736a1182bb606a0100a3de416a7a138fd20144c8e01c800bc25a9333d8a",
          "transactionIndex": "0x46",
          "logIndex": "0xa5",
          "removed": false
        },
        {
          "address": "0x68c47cead9a67e27f84bdb058fcab747d2f2e0c3",
          "topics": [
            "0xddf252ad1be2c89b69c2b068fc378daa952ba7f163c4a11628f55a4df523b3ef",
            "0x00000000000000000000000009af81759315a149f9f87433f5c01f31bff2cf36",
            "0x000000000000000000000000e03a1074c86cfedd5c142c4f04f1a1536e203543"
          ],
          "data": "0x00000000000000000000000000000000000000000000152d02c7e14af6800000",
          "blockHash": "0x04d41398d6a35744b032ed4b8408a82d9e0ad0ebafccd43aa809afd1ab1e68f8",
          "blockNumber": "0x95dd63",
          "blockTimestamp": "0x693b877c",
          "transactionHash": "0xdd212736a1182bb606a0100a3de416a7a138fd20144c8e01c800bc25a9333d8a",
          "transactionIndex": "0x46",
          "logIndex": "0xa6",
          "removed": false
        }
      ],
      "logsBloom": "0x0000000000000000000000100020020010000000000000000000000008000000010000000004004008000000000000000000010800000000000000000000000800000000000000000000000c000002000000000000000000000000040000000000000080020000000000000080000800000000000000100000000810000000082000000001400008000010000000200000000001000000000000000000240000000004000000000000000000000000000000000000400420000000000000000000000002000000000000000000000000000000000000000000001000000020001000000000008000000000000000000004008000000000000000000200000000",
      "type": "0x2",
      "transactionHash": "0xdd212736a1182bb606a0100a3de416a7a138fd20144c8e01c800bc25a9333d8a",
      "transactionIndex": "0x46",
      "blockHash": "0x04d41398d6a35744b032ed4b8408a82d9e0ad0ebafccd43aa809afd1ab1e68f8",
      "blockNumber": "0x95dd63",
      "gasUsed": "0x75315",
      "effectiveGasPrice": "0xf424e",
      "from": "0x09af81759315a149f9f87433f5c01f31bff2cf36",
      "to": "0x429ba70129df741b2ca2a85bc3a2a3328e5c09b4",
      "contractAddress": null
    }
  ],
  "libraries": [],
  "pending": [],
  "returns": {
    "id": {
      "internal_type": "PoolId",
      "value": "0x8971f2d5ce35a4ced5f61adc2484a8e82660242bc0e84ee1ca13606e7d80fb8a"
    }
  },
  "timestamp": 1765508989442,
  "chain": 11155111,
  "commit": "42b6172"
}