{
  "transactions": [
    {
      "hash": "0xde2c81f809f3701ab103f1f7f31dfd45c683e3b92ec96fe75472049c928b506e",
      "transactionType": "CALL",
      "contractName": null,
      "contractAddress": "0x0f4fa7dc4d2a69de0be5b5e3a6923ddce1a7dc2a",
      "function": "approve(address,uint256)",
      "arguments": [
        "0xa6dFcd431EEc8dAd05B104D6Aaa381900dF1c080",
        "115792089237316195423570985008687907853269984665640564039457584007913129639935"
      ],
      "transaction": {
        "from": "0x09af81759315a149f9f87433f5c01f31bff2cf36",
        "to": "0x0f4fa7dc4d2a69de0be5b5e3a6923ddce1a7dc2a",
        "gas": "0x93a5",
        "value": "0x0",
        "input": "0x095ea7b3000000000000000000000000a6dfcd431eec8dad05b104d6aaa381900df1c080ffffffffffffffffffffffffffffffffffffffffffffffffffffffffffffffff",
        "nonce": "0xe",
        "chainId": "0xaa36a7"
      },
      "additionalContracts": [],
      "isFixedGasLimit": false
    },
    {
      "hash": "0x01eacaaea84be98dc667e48e80302bf0fb13f45c3d8bfeeabb1cae6d9a054ced",
      "transactionType": "CALL",
      "contractName": null,
      "contractAddress": "0x68c47cead9a67e27f84bdb058fcab747d2f2e0c3",
      "function": "approve(address,uint256)",
      "arguments": [
        "0xa6dFcd431EEc8dAd05B104D6Aaa381900dF1c080",
        "115792089237316195423570985008687907853269984665640564039457584007913129639935"
      ],
      "transaction": {
        "from": "0x09af81759315a149f9f87433f5c01f31bff2cf36",
        "to": "0x68c47cead9a67e27f84bdb058fcab747d2f2e0c3",
        "gas": "0x93a5",
        "value": "0x0",
        "input": "0x095ea7b3000000000000000000000000a6dfcd431eec8dad05b104d6aaa381900df1c080ffffffffffffffffffffffffffffffffffffffffffffffffffffffffffffffff",
        "nonce": "0xf",
        "chainId": "0xaa36a7"
      },
      "additionalContracts": [],
      "isFixedGasLimit": false
    },
    {
      "hash": "0xb1026587198c9dc0eddb016a74794c47fd609d494caa9f635c50146400d6e7da",
      "transactionType": "CALL",
      "contractName": null,
      "contractAddress": "0x0f4fa7dc4d2a69de0be5b5e3a6923ddce1a7dc2a",
      "function": "approve(address,uint256)",
      "arguments": [
        "0x000000000022D473030F116dDEE9F6B43aC78BA3",
        "115792089237316195423570985008687907853269984665640564039457584007913129639935"
      ],
      "transaction": {
        "from": "0x09af81759315a149f9f87433f5c01f31bff2cf36",
        "to": "0x0f4fa7dc4d2a69de0be5b5e3a6923ddce1a7dc2a",
        "gas": "0x9bfd",
        "value": "0x0",
        "input": "0x095ea7b3000000000000000000000000000000000022d473030f116ddee9f6b43ac78ba3ffffffffffffffffffffffffffffffffffffffffffffffffffffffffffffffff",
        "nonce": "0x10",
        "chainId": "0xaa36a7"
      },
      "additionalContracts": [],
      "isFixedGasLimit": false
    },
    {
      "hash": "0x1bbafa26e6400c0266cf3bad42b485166d590ca460526158c1e30cf8eba1593b",
      "transactionType": "CALL",
      "contractName": null,
      "contractAddress": "0x000000000022d473030f116ddee9f6b43ac78ba3",
      "function": "approve(address,address,uint160,uint48)",
      "arguments": [
        "0x0F4Fa7Dc4d2A69dE0Be5b5E3A6923ddce1a7Dc2a",
        "0x429ba70129df741B2Ca2a85BC3A2a3328e5c09b4",
        "1461501637330902918203684832716283019655932542975",
        "281474976710655"
      ],
      "transaction": {
        "from": "0x09af81759315a149f9f87433f5c01f31bff2cf36",
        "to": "0x000000000022d473030f116ddee9f6b43ac78ba3",
        "gas": "0x96a0",
        "value": "0x0",
        "input": "0x87517c450000000000000000000000000f4fa7dc4d2a69de0be5b5e3a6923ddce1a7dc2a000000000000000000000000429ba70129df741b2ca2a85bc3a2a3328e5c09b4000000000000000000000000ffffffffffffffffffffffffffffffffffffffff0000000000000000000000000000000000000000000000000000ffffffffffff",
        "nonce": "0x11",
        "chainId": "0xaa36a7"
      },
      "additionalContracts": [],
      "isFixedGasLimit": false
    },
    {
      "hash": "0x199549ed29883062d3244792c68e3eaf25822834b023721afca815f8daaf78a8",
      "transactionType": "CALL",
      "contractName": null,
      "contractAddress": "0x68c47cead9a67e27f84bdb058fcab747d2f2e0c3",
      "function": "approve(address,uint256)",
      "arguments": [
        "0x000000000022D473030F116dDEE9F6B43aC78BA3",
        "115792089237316195423570985008687907853269984665640564039457584007913129639935"
      ],
      "transaction": {
        "from": "0x09af81759315a149f9f87433f5c01f31bff2cf36",
        "to": "0x68c47cead9a67e27f84bdb058fcab747d2f2e0c3",
        "gas": "0x9bfd",
        "value": "0x0",
        "input": "0x095ea7b3000000000000000000000000000000000022d473030f116ddee9f6b43ac78ba3ffffffffffffffffffffffffffffffffffffffffffffffffffffffffffffffff",
        "nonce": "0x12",
        "chainId": "0xaa36a7"
      },
      "additionalContracts": [],
      "isFixedGasLimit": false
    },
    {
      "hash": "0x6643bb5bb952e644fcbd953cf2378effaedc1d9e05b0c0e8d2679088285de3af",
      "transactionType": "CALL",
      "contractName": null,
      "contractAddress": "0x000000000022d473030f116ddee9f6b43ac78ba3",
      "function": "approve(address,address,uint160,uint48)",
      "arguments": [
        "0x68C47CEAD9A67E27f84BDb058FCaB747d2F2e0C3",
        "0x429ba70129df741B2Ca2a85BC3A2a3328e5c09b4",
        "1461501637330902918203684832716283019655932542975",
        "281474976710655"
      ],
      "transaction": {
        "from": "0x09af81759315a149f9f87433f5c01f31bff2cf36",
        "to": "0x000000000022d473030f116ddee9f6b43ac78ba3",
        "gas": "0x96a0",
        "value": "0x0",
        "input": "0x87517c4500000000000000000000000068c47cead9a67e27f84bdb058fcab747d2f2e0c3000000000000000000000000429ba70129df741b2ca2a85bc3a2a3328e5c09b4000000000000000000000000ffffffffffffffffffffffffffffffffffffffff0000000000000000000000000000000000000000000000000000ffffffffffff",
        "nonce": "0x13",
        "chainId": "0xaa36a7"
      },
      "additionalContracts": [],
      "isFixedGasLimit": false
    },
    {
      "hash": "0xd850f3cea31d342a184a9f180828e3ad82c0ac969cca13ec8d415dea0d3b9784",
      "transactionType": "CALL",
      "contractName": null,
      "contractAddress": "0x429ba70129df741b2ca2a85bc3a2a3328e5c09b4",
      "function": "multicall(bytes[])",
      "arguments": [
        "[0xf70204050000000000000000000000000f4fa7dc4d2a69de0be5b5e3a6923ddce1a7dc2a00000000000000000000000068c47cead9a67e27f84bdb058fcab747d2f2e0c30000000000000000000000000000000000000000000000000000000000000bb8000000000000000000000000000000000000000000000000000000000000003c000000000000000000000000a6dfcd431eec8dad05b104d6aaa381900df1c080000000000000000000000000000000000000000100000000000000000000000000000000000000000000000000000000000000000000000000000000000000e00000000000000000000000000000000000000000000000000000000000000000, 0xdd46508f000000000000000000000000000000000000000000000000000000000000004000000000000000000000000000000000000000000000000000000000693b89140000000000000000000000000000000000000000000000000000000000000300000000000000000000000000000000000000000000000000000000000000004000000000000000000000000000000000000000000000000000000000000000800000000000000000000000000000000000000000000000000000000000000002020d00000000000000000000000000000000000000000000000000000000000000000000000000000000000000000000000000000000000000000000000000020000000000000000000000000000000000000000000000000000000000000040000000000000000000000000000000000000000000000000000000000000020000000000000000000000000000000000000000000000000000000000000001a00000000000000000000000000f4fa7dc4d2a69de0be5b5e3a6923ddce1a7dc2a00000000000000000000000068c47cead9a67e27f84bdb058fcab747d2f2e0c30000000000000000000000000000000000000000000000000000000000000bb8000000000000000000000000000000000000000000000000000000000000003c000000000000000000000000a6dfcd431eec8dad05b104d6aaa381900df1c080fffffffffffffffffffffffffffffffffffffffffffffffffffffffffffffda8000000000000000000000000000000000000000000000000000000000000025800000000000000000000000000000000000000000002cc89743b0bf39cccfd5000000000000000000000000000000000000000000000152d02c7e14af680000100000000000000000000000000000000000000000000152d02c7e14af680000100000000000000000000000009af81759315a149f9f87433f5c01f31bff2cf360000000000000000000000000000000000000000000000000000000000000180000000000000000000000000000000000000000000000000000000000000000000000000000000000000000000000000000000000000000000000000000000400000000000000000000000000f4fa7dc4d2a69de0be5b5e3a6923ddce1a7dc2a00000000000000000000000068c47cead9a67e27f84bdb058fcab747d2f2e0c3]"
      ],
      "transaction": {
        "from": "0x09af81759315a149f9f87433f5c01f31bff2cf36",
        "to": "0x429ba70129df741b2ca2a85bc3a2a3328e5c09b4",
        "gas": "0x56d90",
        "value": "0x0",
        "input": "0xac9650d800000000000000000000000000000000000000000000000000000000000000200000000000000000000000000000000000000000000000000000000000000002000000000000000000000000000000000000000000000000000000000000004000000000000000000000000000000000000000000000000000000000000001800000000000000000000000000000000000000000000000000000000000000104f70204050000000000000000000000000f4fa7dc4d2a69de0be5b5e3a6923ddce1a7dc2a00000000000000000000000068c47cead9a67e27f84bdb058fcab747d2f2e0c30000000000000000000000000000000000000000000000000000000000000bb8000000000000000000000000000000000000000000000000000000000000003c000000000000000000000000a6dfcd431eec8dad05b104d6aaa381900df1c080000000000000000000000000000000000000000100000000000000000000000000000000000000000000000000000000000000000000000000000000000000e00000000000000000000000000000000000000000000000000000000000000000000000000000000000000000000000000000000000000000000000000000000000000000000000000000000000000000000000000000000000000364dd46508f000000000000000000000000000000000000000000000000000000000000004000000000000000000000000000000000000000000000000000000000693b89140000000000000000000000000000000000000000000000000000000000000300000000000000000000000000000000000000000000000000000000000000004000000000000000000000000000000000000000000000000000000000000000800000000000000000000000000000000000000000000000000000000000000002020d00000000000000000000000000000000000000000000000000000000000000000000000000000000000000000000000000000000000000000000000000020000000000000000000000000000000000000000000000000000000000000040000000000000000000000000000000000000000000000000000000000000020000000000000000000000000000000000000000000000000000000000000001a00000000000000000000000000f4fa7dc4d2a69de0be5b5e3a6923ddce1a7dc2a00000000000000000000000068c47cead9a67e27f84bdb058fcab747d2f2e0c30000000000000000000000000000000000000000000000000000000000000bb8000000000000000000000000000000000000000000000000000000000000003c000000000000000000000000a6dfcd431eec8dad05b104d6aaa381900df1c080fffffffffffffffffffffffffffffffffffffffffffffffffffffffffffffda8000000000000000000000000000000000000000000000000000000000000025800000000000000000000000000000000000000000002cc89743b0bf39cccfd5000000000000000000000000000000000000000000000152d02c7e14af680000100000000000000000000000000000000000000000000152d02c7e14af680000100000000000000000000000009af81759315a149f9f87433f5c01f31bff2cf360000000000000000000000000000000000000000000000000000000000000180000000000000000000000000000000000000000000000000000000000000000000000000000000000000000000000000000000000000000000000000000000400000000000000000000000000f4fa7dc4d2a69de0be5b5e3a6923ddce1a7dc2a00000000000000000000000068c47cead9a67e27f84bdb058fcab747d2f2e0c300000000000000000000000000000000000000000000000000000000",
        "nonce": "0x14",
        "chainId": "0xaa36a7"
      },
      "additionalContracts": [],
      "isFixedGasLimit": false
    }
  ],
  "receipts": [
    {
      "status": "0x1",
      "cumulativeGasUsed": "0xbe9265",
      "logs": [
        {
          "address": "0x0f4fa7dc4d2a69de0be5b5e3a6923ddce1a7dc2a",
          "topics": [
            "0x8c5be1e5ebec7d5bd14f71427d1e84f3dd0314c0f7b2291e5b200ac8c7c3b925",
            "0x00000000000000000000000009af81759315a149f9f87433f5c01f31bff2cf36",
            "0x000000000000000000000000a6dfcd431eec8dad05b104d6aaa381900df1c080"
          ],
          "data": "0xffffffffffffffffffffffffffffffffffffffffffffffffffffffffffffffff",
          "blockHash": "0xa6003e9544e35bc8d2441e3282c308d06c3d394e22e6b75bd823d636cbc42099",
          "blockNumber": "0x95dd83",
          "blockTimestamp": "0x693b88fc",
          "transactionHash": "0x01eacaaea84be98dc667e48e80302bf0fb13f45c3d8bfeeabb1cae6d9a054ced",
          "transactionIndex": "0x42",
          "logIndex": "0x128",
          "removed": false
        }
      ],
      "logsBloom": "0x00000000000000000000000000000100000000000000000000000000000000000100000000000000000000000000000000000000000000000000000000200000000000000000000000000000000002000000000000000000000000000000000000080080000000000000000000000000000000000000000000000000000000080000000000000000000000000000000000000000002000000000000000000000020000000000000000000000000000000000000000000020000000000000000000000000000000000000000000000000000000000000000000000000000000000010000000000000000000000000000000000000000000000000000200000000",
      "type": "0x2",
      "transactionHash": "0x01eacaaea84be98dc667e48e80302bf0fb13f45c3d8bfeeabb1cae6d9a054ced",
      "transactionIndex": "0x42",
      "blockHash": "0xa6003e9544e35bc8d2441e3282c308d06c3d394e22e6b75bd823d636cbc42099",
      "blockNumber": "0x95dd83",
      "gasUsed": "0x6ae5",
      "effectiveGasPrice": "0x1005fc",
      "from": "0x09af81759315a149f9f87433f5c01f31bff2cf36",
      "to": "0x0f4fa7dc4d2a69de0be5b5e3a6923ddce1a7dc2a",
      "contractAddress": null
    },
    {
      "status": "0x1",
      "cumulativeGasUsed": "0xbefd4a",
      "logs": [
        {
          "address": "0x68c47cead9a67e27f84bdb058fcab747d2f2e0c3",
          "topics": [
            "0x8c5be1e5ebec7d5bd14f71427d1e84f3dd0314c0f7b2291e5b200ac8c7c3b925",
            "0x00000000000000000000000009af81759315a149f9f87433f5c01f31bff2cf36",
            "0x000000000000000000000000a6dfcd431eec8dad05b104d6aaa381900df1c080"
          ],
          "data": "0xffffffffffffffffffffffffffffffffffffffffffffffffffffffffffffffff",
          "blockHash": "0xa6003e9544e35bc8d2441e3282c308d06c3d394e22e6b75bd823d636cbc42099",
          "blockNumber": "0x95dd83",
          "blockTimestamp": "0x693b88fc",
          "transactionHash": "0xde2c81f809f3701ab103f1f7f31dfd45c683e3b92ec96fe75472049c928b506e",
          "transactionIndex": "0x43",
          "logIndex": "0x129",
          "removed": false
        }
      ],
      "logsBloom": "0x00000000000000000000000000000300100000000000000000000000000000000000000000000000000000000000000000000000000000000000000000200008000000000000000000000000000002000000000000000000000000000000000000080080000000000000000000000000000000000000000000000000000000000000000000000000000000000000000000000000002000000000000000000000020000000000000000000000000000000000000000000020000000000000000000000000000000000000000000000000000000000000000000000000000000000010000000000000000000000000000000000000000000000000000000000000",
      "type": "0x2",
      "transactionHash": "0xde2c81f809f3701ab103f1f7f31dfd45c683e3b92ec96fe75472049c928b506e",
      "transactionIndex": "0x43",
      "blockHash": "0xa6003e9544e35bc8d2441e3282c308d06c3d394e22e6b75bd823d636cbc42099",
      "blockNumber": "0x95dd83",
      "gasUsed": "0x6ae5",
      "effectiveGasPrice": "0x1005fc",
      "from": "0x09af81759315a149f9f87433f5c01f31bff2cf36",
      "to": "0x68c47cead9a67e27f84bdb058fcab747d2f2e0c3",
      "contractAddress": null
    },
    {
      "status": "0x1",
      "cumulativeGasUsed": "0xbf67f3",
      "logs": [
        {
          "address": "0x0f4fa7dc4d2a69de0be5b5e3a6923ddce1a7dc2a",
          "topics": [
            "0x8c5be1e5ebec7d5bd14f71427d1e84f3dd0314c0f7b2291e5b200ac8c7c3b925",
            "0x00000000000000000000000009af81759315a149f9f87433f5c01f31bff2cf36",
            "0x000000000000000000000000000000000022d473030f116ddee9f6b43ac78ba3"
          ],
          "data": "0xffffffffffffffffffffffffffffffffffffffffffffffffffffffffffffffff",
          "blockHash": "0xa6003e9544e35bc8d2441e3282c308d06c3d394e22e6b75bd823d636cbc42099",
          "blockNumber": "0x95dd83",
          "blockTimestamp": "0x693b88fc",
          "transactionHash": "0xd850f3cea31d342a184a9f180828e3ad82c0ac969cca13ec8d415dea0d3b9784",
          "transactionIndex": "0x44",
          "logIndex": "0x12a",
          "removed": false
        }
      ],
      "logsBloom": "0x00000000000000000000000000000000000000000000000000000000000000000100000000000000000000000000000000000000800000000000000000200000000000000000000000004000000002000000000000000800000000000000000000000080000000000000000000000000000000000000000000000000000000080000000000000000000000000000000000000000000000000000000000000000020000000000000000000000000000000000000000000020000000000000000000000000000000000000000000000000000000000000000000000000000000000010000000000000000000000000000000000000000000000000000200000000",
      "type": "0x2",
      "transactionHash": "0xd850f3cea31d342a184a9f180828e3ad82c0ac969cca13ec8d415dea0d3b9784",
      "transactionIndex": "0x44",
      "blockHash": "0xa6003e9544e35bc8d2441e3282c308d06c3d394e22e6b75bd823d636cbc42099",
      "blockNumber": "0x95dd83",
      "gasUsed": "0x6aa9",
      "effectiveGasPrice": "0x1005fc",
      "from": "0x09af81759315a149f9f87433f5c01f31bff2cf36",
      "to": "0x0f4fa7dc4d2a69de0be5b5e3a6923ddce1a7dc2a",
      "contractAddress": null
    },
    {
      "status": "0x1",
      "cumulativeGasUsed": "0xbfd501",
      "logs": [
        {
          "address": "0x000000000022d473030f116ddee9f6b43ac78ba3",
          "topics": [
            "0xda9fa7c1b00402c17d0161b249b1ab8bbec047c5a52207b9c112deffd817036b",
            "0x00000000000000000000000009af81759315a149f9f87433f5c01f31bff2cf36",
            "0x0000000000000000000000000f4fa7dc4d2a69de0be5b5e3a6923ddce1a7dc2a",
            "0x000000000000000000000000429ba70129df741b2ca2a85bc3a2a3328e5c09b4"
          ],
          "data": "0x000000000000000000000000ffffffffffffffffffffffffffffffffffffffff0000000000000000000000000000000000000000000000000000ffffffffffff",
          "blockHash": "0xa6003e9544e35bc8d2441e3282c308d06c3d394e22e6b75bd823d636cbc42099",
          "blockNumber": "0x95dd83",
          "blockTimestamp": "0x693b88fc",
          "transactionHash": "0x199549ed29883062d3244792c68e3eaf25822834b023721afca815f8daaf78a8",
          "transactionIndex": "0x45",
          "logIndex": "0x12b",
          "removed": false
        }
      ],
      "logsBloom": "0x00010000000000000000000000000000000000000000000000000000000000000000000000000040080000000000000000000000000000000000000000080000000000000000000000000000000002000000000000000000000000040000000000000080000000000000000000000000000000000000000000000800000000000020000000000000000000000000200000000000000000000000000000000000000000000000000000000000000000000000000000000420000000080000000000000000000000000000000000000000000000000000000040000000000000000000000000000000000000000000000000000000000000000000000000000400",
      "type": "0x2",
      "transactionHash": "0x199549ed29883062d3244792c68e3eaf25822834b023721afca815f8daaf78a8",
      "transactionIndex": "0x45",
      "blockHash": "0xa6003e9544e35bc8d2441e3282c308d06c3d394e22e6b75bd823d636cbc42099",
      "blockNumber": "0x95dd83",
      "gasUsed": "0x6d0e",
      "effectiveGasPrice": "0x1005fc",
      "from": "0x09af81759315a149f9f87433f5c01f31bff2cf36",
      "to": "0x000000000022d473030f116ddee9f6b43ac78ba3",
      "contractAddress": null
    },
    {
      "status": "0x1",
      "cumulativeGasUsed": "0xc03faa",
      "logs": [
        {
          "address": "0x68c47cead9a67e27f84bdb058fcab747d2f2e0c3",
          "topics": [
            "0x8c5be1e5ebec7d5bd14f71427d1e84f3dd0314c0f7b2291e5b200ac8c7c3b925",
            "0x00000000000000000000000009af81759315a149f9f87433f5c01f31bff2cf36",
            "0x000000000000000000000000000000000022d473030f116ddee9f6b43ac78ba3"
          ],
          "data": "0xffffffffffffffffffffffffffffffffffffffffffffffffffffffffffffffff",
          "blockHash": "0xa6003e9544e35bc8d2441e3282c308d06c3d394e22e6b75bd823d636cbc42099",
          "blockNumber": "0x95dd83",
          "blockTimestamp": "0x693b88fc",
          "transactionHash": "0x1bbafa26e6400c0266cf3bad42b485166d590ca460526158c1e30cf8eba1593b",
          "transactionIndex": "0x46",
          "logIndex": "0x12c",
          "removed": false
        }
      ],
      "logsBloom": "0x00000000000000000000000000000200100000000000000000000000000000000000000000000000000000000000000000000000800000000000000000200008000000000000000000004000000002000000000000000800000000000000000000000080000000000000000000000000000000000000000000000000000000000000000000000000000000000000000000000000000000000000000000000000020000000000000000000000000000000000000000000020000000000000000000000000000000000000000000000000000000000000000000000000000000000010000000000000000000000000000000000000000000000000000000000000",
      "type": "0x2",
      "transactionHash": "0x1bbafa26e6400c0266cf3bad42b485166d590ca460526158c1e30cf8eba1593b",
      "transactionIndex": "0x46",
      "blockHash": "0xa6003e9544e35bc8d2441e3282c308d06c3d394e22e6b75bd823d636cbc42099",
      "blockNumber": "0x95dd83",
      "gasUsed": "0x6aa9",
      "effectiveGasPrice": "0x1005fc",
      "from": "0x09af81759315a149f9f87433f5c01f31bff2cf36",
      "to": "0x68c47cead9a67e27f84bdb058fcab747d2f2e0c3",
      "contractAddress": null
    },
    {
      "status": "0x1",
      "cumulativeGasUsed": "0xc0acb8",
      "logs": [
        {
          "address": "0x000000000022d473030f116ddee9f6b43ac78ba3",
          "topics": [
            "0xda9fa7c1b00402c17d0161b249b1ab8bbec047c5a52207b9c112deffd817036b",
            "0x00000000000000000000000009af81759315a149f9f87433f5c01f31bff2cf36",
            "0x00000000000000000000000068c47cead9a67e27f84bdb058fcab747d2f2e0c3",
            "0x000000000000000000000000429ba70129df741b2ca2a85bc3a2a3328e5c09b4"
          ],
          "data": "0x000000000000000000000000ffffffffffffffffffffffffffffffffffffffff0000000000000000000000000000000000000000000000000000ffffffffffff",
          "blockHash": "0xa6003e9544e35bc8d2441e3282c308d06c3d394e22e6b75bd823d636cbc42099",
          "blockNumber": "0x95dd83",
          "blockTimestamp": "0x693b88fc",
          "transactionHash": "0x6643bb5bb952e644fcbd953cf2378effaedc1d9e05b0c0e8d2679088285de3af",
          "transactionIndex": "0x47",
          "logIndex": "0x12d",
          "removed": false
        }
      ],
      "logsBloom": "0x00010000000000000000000000200000000000000000000000000000000000000000000000000040080000000000000000000000000000000000000000080000000000000000000000000004000002000000000000000000000000000000000000000080000000000000000000000000000000000000000000000800000000000020000000000000000000000000000000000000000000000000000000040000000000000000000000000000000000000000000000000020000000080000000000000000000000000000000000000000000000000000000040000000000000000000000000000000000000000000000000000000000000000000000000000400",
      "type": "0x2",
      "transactionHash": "0x6643bb5bb952e644fcbd953cf2378effaedc1d9e05b0c0e8d2679088285de3af",
      "transactionIndex": "0x47",
      "blockHash": "0xa6003e9544e35bc8d2441e3282c308d06c3d394e22e6b75bd823d636cbc42099",
      "blockNumber": "0x95dd83",
      "gasUsed": "0x6d0e",
      "effectiveGasPrice": "0x1005fc",
      "from": "0x09af81759315a149f9f87433f5c01f31bff2cf36",
      "to": "0x000000000022d473030f116ddee9f6b43ac78ba3",
      "contractAddress": null
    },
    {
      "status": "0x1",
      "cumulativeGasUsed": "0xc462d9",
      "logs": [
        {
          "address": "0x429ba70129df741b2ca2a85bc3a2a3328e5c09b4",
          "topics": [
            "0xddf252ad1be2c89b69c2b068fc378daa952ba7f163c4a11628f55a4df523b3ef",
            "0x0000000000000000000000000000000000000000000000000000000000000000",
            "0x00000000000000000000000009af81759315a149f9f87433f5c01f31bff2cf36",
            "0x00000000000000000000000000000000000000000000000000000000000053fa"
          ],
          "data": "0x",
          "blockHash": "0xa6003e9544e35bc8d2441e3282c308d06c3d394e22e6b75bd823d636cbc42099",
          "blockNumber": "0x95dd83",
          "blockTimestamp": "0x693b88fc",
          "transactionHash": "0xb1026587198c9dc0eddb016a74794c47fd609d494caa9f635c50146400d6e7da",
          "transactionIndex": "0x48",
          "logIndex": "0x12e",
          "removed": false
        },
        {
          "address": "0xe03a1074c86cfedd5c142c4f04f1a1536e203543",
          "topics": [
            "0xf208f4912782fd25c7f114ca3723a2d5dd6f3bcc3ac8db5af63baa85f711d5ec",
            "0x8971f2d5ce35a4ced5f61adc2484a8e82660242bc0e84ee1ca13606e7d80fb8a",
            "0x000000000000000000000000429ba70129df741b2ca2a85bc3a2a3328e5c09b4"
          ],
          "data": "0xfffffffffffffffffffffffffffffffffffffffffffffffffffffffffffffda8000000000000000000000000000000000000000000000000000000000000025800000000000000000000000000000000000000000002cc89743b0bf39cccfd5000000000000000000000000000000000000000000000000000000000000053fa",
          "blockHash": "0xa6003e9544e35bc8d2441e3282c308d06c3d394e22e6b75bd823d636cbc42099",
          "blockNumber": "0x95dd83",
          "blockTimestamp": "0x693b88fc",
          "transactionHash": "0xb1026587198c9dc0eddb016a74794c47fd609d494caa9f635c50146400d6e7da",
          "transactionIndex": "0x48",
          "logIndex": "0x12f",
          "removed": false
        },
        {
          "address": "0x0f4fa7dc4d2a69de0be5b5e3a6923ddce1a7dc2a",
          "topics": [
            "0xddf252ad1be2c89b69c2b068fc378daa952ba7f163c4a11628f55a4df523b3ef",
            "0x00000000000000000000000009af81759315a149f9f87433f5c01f31bff2cf36",
            "0x000000000000000000000000e03a1074c86cfedd5c142c4f04f1a1536e203543"
          ],
          "data": "0x00000000000000000000000000000000000000000000152d02c7e14af6800000",
          "blockHash": "0xa6003e9544e35bc8d2441e3282c308d06c3d394e22e6b75bd823d636cbc42099",
          "blockNumber": "0x95dd83",
          "blockTimestamp": "0x693b88fc",
          "transactionHash": "0xb1026587198c9dc0eddb016a74794c47fd609d494caa9f635c50146400d6e7da",
          "transactionIndex": "0x48",
          "logIndex": "0x130",
          "removed": false
        },
        {
          "address": "0x68c47cead9a67e27f84bdb058fcab747d2f2e0c3",
          "topics": [
            "0xddf252ad1be2c89b69c2b068fc378daa952ba7f163c4a11628f55a4df523b3ef",
            "0x00000000000000000000000009af81759315a149f9f87433f5c01f31bff2cf36",
            "0x000000000000000000000000e03a1074c86cfedd5c142c4f04f1a1536e203543"
          ],
          "data": "0x00000000000000000000000000000000000000000000152d02c7e14af6800000",
          "blockHash": "0xa6003e9544e35bc8d2441e3282c308d06c3d394e22e6b75bd823d636cbc42099",
          "blockNumber": "0x95dd83",
          "blockTimestamp": "0x693b88fc",
          "transactionHash": "0xb1026587198c9dc0eddb016a74794c47fd609d494caa9f635c50146400d6e7da",
          "transactionIndex": "0x48",
          "logIndex": "0x131",
          "removed": false
        }
      ],
      "logsBloom": "0x00000000000000000000001000000200100000000000000000000000080000000100000000000040080000000000000000000108000000000000000000000008000000000000000000000008000002000000000000000000000000000000000000000080020000000000000080000800000000000000100000000810000000080000000001000000000010000000000000000000000000000000000000000000000004000000000000000000000000000000000000400020000000000000000000000002000100000000000000000000000000020000000000001000000020001000000000008000000000000000000004008000000000000000000200000000",
      "type": "0x2",
      "transactionHash": "0xb1026587198c9dc0eddb016a74794c47fd609d494caa9f635c50146400d6e7da",
      "transactionIndex": "0x48",
      "blockHash": "0xa6003e9544e35bc8d2441e3282c308d06c3d394e22e6b75bd823d636cbc42099",
      "blockNumber": "0x95dd83",
      "gasUsed": "0x3b621",
      "effectiveGasPrice": "0x1005fc",
      "from": "0x09af81759315a149f9f87433f5c01f31bff2cf36",
      "to": "0x429ba70129df741b2ca2a85bc3a2a3328e5c09b4",
      "contractAddress": null
    }
  ],
  "libraries": [],
  "pending": [],
  "returns": {
    "id": {
      "internal_type": "PoolId",
      "value": "0x8971f2d5ce35a4ced5f61adc2484a8e82660242bc0e84ee1ca13606e7d80fb8a"
    }
  },
  "timestamp": 1765509374266,
  "chain": 11155111,
  "commit": "42b6172"
}